:10093900012E00012F0020250900007F08087F00F3
:100949001E21292911007E0102007E0102001E21BB
:0E095900211E0000007D00007F08087F001EA8
:03000B000208D711
:1008D700C0E0C0D0C28D758A00758C4C0508C3E591
:1008E700089414748094804013750800052ED3E58E
:1008F7002E941C748094804003752E00D0D0D0E0D5
:0109070032BD
:02088C008F30AB
:10088E00E4F531AF31EF3395E0FEC3EF9408EE643B
:10089E0080948050287E007480A807088006CEA21F
:1008AE00E713CE13D8F8FFEF553024FF92B4D2B62B
:1008BE007F017E00120989C2B6053180C6D2B57F8E
:0808CE00017E00120989C2B588
:0108D60022FF
:10096800AE05EF14FFF87480088002C313D8FCF4B6
:10097800F580AF0612088C7580FF7F017E000209A2
:0109880089E5
:100908001209A9C2B5C2B6752F01D3E52F94087490
:1009180080948050F2E52F252E2408F8E6FDAF2FAD
:100928001209687580FF7F017E00120989052F80F2
:01093800D9E5
:10098900EF1FAA0670011E4A6015E4FCFDC3ED9431
:0F09990014EC6480948050E80DBD00010C80EEDA
:0109A800222C
:1009A900758901E4F58A758C4CD2AFD2A9C28DD272
:0209B9008C228E
:03000000020800F3
:0C080000787FE4F6D8FD758131020847CE
:10080C00020908E493A3F8E493A34003F68001F2F1
:10081C0008DFF48029E493A3F85407240CC8C333ED
:10082C00C4540F4420C8834004F456800146F6DFBC
:10083C00E4800B0102040810204080900939E47E0A
:10084C00019360BCA3FF543F30E509541FFEE493B1
:10085C00A360010ECF54C025E060A840B8E493A378
:10086C00FAE493A3F8E493A3C8C582C8CAC583CAA3
:10087C00F0A3C8C582C8CAC583CADFE9DEE780BE5B
:01096700008F
:00000001FF
